:0300000002000EED
:0C000E00787FE4F6D8FD758120020055D3
:10010F00C0F9A4B0999282F880908883C6A1868E98
:0A012A00C181C1800109000108FF36
:10009A00758901758CF8758A30D28CD2A9D2AF7560
:1000AA0090FFE4F580A200300101B350F820011955
:1000BA000509C3E509940A748094804003E4F509AC
:0F00CA00E50990010F93F4F580A200920180D612
:0B011F00EF1FAC0670011E4C70F622B2
:03000B000200D917
:0B00D900C0E0C0D075D000C006C0071A
:1000E400758CF8758A30E50825E0FFA290E4334F5B
:1000F400F508FF7E007004C2008007EFF44E700222
:02010400D20027
:09010600D007D006D0D0D0E032C1
:10001A0002009AE493A3F8E493A34003F68001F262
:10002A0008DFF48029E493A3F85407240CC8C333E7
:10003A00C4540F4420C8834004F456800146F6DFB6
:10004A00E4800B010204081020408090012AE47E1B
:10005A00019360BCA3FF543F30E509541FFEE493AB
:10006A00A360010ECF54C025E060A840B8E493A372
:10007A00FAE493A3F8E493A3C8C582C8CAC583CA9D
:10008A00F0A3C8C582C8CAC583CADFE9DEE780BE55
:0101340000CA
:00000001FF
